S123000088FFFF1F4D2500001F2100001F2100000000000000000000000000000000000045
S12300200000000000000000000000001F21000000000000000000001F2100001F210000FC
S12300401F2100001F2100001F2100001F2100001F2100001F2100001F2100001F2100009C
S12300601F2100001F2100001F2100001F2100004B1900001F2100001F2100001F21000058
S12300801F210000710A0000531900001F2100001F2100001F2100001F2100001F210000F5
S12300A01F2100001F2100001F2100001F2100001F210000000000000500000006000000F1
S12300C030FEFF1F00160000020000000000FF000000800000000000000000000000000039
S12300E00000000000000000000000000000000000000000000000000000000000000000FC
S12301000000000000000000050000000600000000FEFF1F000000000000000000000000B4
S123012000000000000000000000000000000000FEFFFFFFE0FFFFFF0000000000000000E3
S123014000000000000000000028293C3DFF00000000000001000000A55AA44AFFFFFFFFE8
S1230160FFFFFFFFFFFFFFFFFFFFFFFFFFFFFFFFFFFFFFFFFFFFFFFFFFFFFFFFFFFFFFFF9B
S1230180FFFFFFFFFFFFFFFFFFFFFFFFFFFFFFFFFFFFFFFFFFFFFFFFFFFFFFFFFFFFFFFF7B
S12301A0FFFFFFFFFFFFFFFFFFFFFFFFFFFFFFFFFFFFFFFFFFFFFFFFFFFFFFFFFFFFFFFF5B
S12301C0FFFFFFFFFFFFFFFFFFFFFFFFFFFFFFFFFFFFFFFFFFFFFFFFFFFFFFFFFFFFFFFF3B
S12301E0FFFFFFFFFFFFFFFFFFFFFFFFFFFFFFFFFFFFFFFFFFFFFFFFFFFFFFFFFFFFFFFF1B
S1230200FFFFFFFFFFFFFFFFFFFFFFFFFFFFFFFFFFFFFFFFFFFFFFFFFFFFFFFFFFFFFFFFFA
S1230220FFFFFFFFFFFFFFFFFFFFFFFFFFFFFFFFFFFFFFFFFFFFFFFFFFFFFFFFFFFFFFFFDA
S1230240FFFFFFFFFFFFFFFFFFFFFFFFFFFFFFFFFFFFFFFFFFFFFFFFFFFFFFFFFFFFFFFFBA
S1230260FFFFFFFFFFFFFFFFFFFFFFFFFFFFFFFFFFFFFFFFFFFFFFFFFFFFFFFFFFFFFFFF9A
S1230280FFFFFFFFFFFFFFFFFFFFFFFFFFFFFFFFFFFFFFFFFFFFFFFFFFFFFFFFFFFFFFFF7A
S12302A0FFFFFFFFFFFFFFFFFFFFFFFFFFFFFFFFFFFFFFFFFFFFFFFFFFFFFFFFFFFFFFFF5A
S12302C0FFFFFFFFFFFFFFFFFFFFFFFFFFFFFFFFFFFFFFFFFFFFFFFFFFFFFFFFFFFFFFFF3A
S12302E0FFFFFFFFFFFFFFFFFFFFFFFFFFFFFFFFFFFFFFFFFFFFFFFFFFFFFFFFFFFFFFFF1A
S1230300FFFFFFFFFFFFFFFFFFFFFFFFFFFFFFFFFFFFFFFFFFFFFFFFFFFFFFFFFFFFFFFFF9
S1230320FFFFFFFFFFFFFFFFFFFFFFFFFFFFFFFFFFFFFFFFFFFFFFFFFFFFFFFFFFFFFFFFD9
S1230340FFFFFFFFFFFFFFFFFFFFFFFFFFFFFFFFFFFFFFFFFFFFFFFFFFFFFFFFFFFFFFFFB9
S1230360FFFFFFFFFFFFFFFFFFFFFFFFFFFFFFFFFFFFFFFFFFFFFFFFFFFFFFFFFFFFFFFF99
S1230380FFFFFFFFFFFFFFFFFFFFFFFFFFFFFFFFFFFFFFFFFFFFFFFFFFFFFFFFFFFFFFFF79
S12303A0FFFFFFFFFFFFFFFFFFFFFFFFFFFFFFFFFFFFFFFFFFFFFFFFFFFFFFFFFFFFFFFF59
S12303C0FFFFFFFFFFFFFFFFFFFFFFFFFFFFFFFFFFFFFFFFFFFFFFFFFFFFFFFFFFFFFFFF39
S12303E0FFFFFFFFFFFFFFFFFFFFFFFFFFFFFFFFFFFFFFFFFFFFFFFFFFFFFFFFFFFF0152C4
S1230400FFFFFFFFFFFFFFFFFFFFFFFFFFFFFEFF8D48017802220A430270B2490978FE221C
S1230420FF2900D153218170C1780A40C270402102790A42FBD04278202313434370027931
S1230440114301717047000072B6804880490180A549018062B6704730B500247D4901F0E3
S1230460E0FD401E7C4980228B79134201D17B4830BD3F230D786D0611D40D78154207D009
S12304800A781A403F250540AA4201D0B54830BD0A78C025154003402B430B7005E00978DE
S12304A019400340994200D0AE4C200030BD30B40100002400200322114201D08B482DE098
S12304C08B4B30251D711C700A241C720C0C5C7201241C705972090A197286490C6880252F
S12304E06D0225430D60802119711C790C42FCD01979890600D580481979C90602D50100E3
S1230500994808431979114202D00100974808431979114202D00100B248084330BC704729
S1230520F0B41300002400220325284201D06F4842E06F4E30273771347006243472040C3E
S12305407472012434707072000A307202203070080A307271723570080E3072080C7072AE
S123056004203070180A3072737205203070180E3072180C70725F48016823040B4303608F
S12305808020307131790142FCD03079800600D5594A3079C00602D51000734A02433079B5
S12305A0284202D01000714A02433079284202D010008C4A02431000F0BC7047F8B50300B8
S12305C00020D6085207520F00921706BF0E1A009B0701D04548F2BD012E0EDB15000C00E1
S12305E02168626808342800FFF79AFF010029D10835761EF4D12A002100012F0EDB3E007E
S123060014000D0029682D1D200000F029F8010018D1241D761EF5D122002900009BBC0082
S12306201B1BDBB2002B0DD00020C043C918491E040208782043491E5B1EF9D101001000DC
S123064000F00EF8F2BD00000040064002200540A602000040420F00000002401430000045
S123066070B402000025002003231A4201D01F4836E01F4C30262671257006252572150C6B
S12306806572012525706272120A2272022222700A0A2272617223700A0E2272090C6172E8
S12306A014490A682D0415430D608021217122790A42FCD02179890600D50F482179C906CD
S12306C002D50100284808432179194202D00100264808432179194202D001004148084366
S12306E070BC7047FF030000B480000001300000020002400C3000F00830000010B401003F
S123070000209E4A302313711070122313720B0C5372012313705172090A117298490B688C
S1230720802464021C430C608021117113790B42FCD01179890600D592481179C90602D520
S1230740010009480843032113790B4202D003000648184312790A4202D00100214808431F
S123076010BC704718300000103000001130000030B402000020814B30241C7118701124B9
S12307801C72140C5C7201241C705A72120A1A7202221A700A0A5A7203221A7059727849EB
S12307A00C6880256D0225430D60802119711C790C42FCD01979890600D572481979C906ED
S12307C002D50100A74808431979114202D00100A54808431979114202D0010001480843C7
S12307E030BC704712300000FEB50C0000210191694600250D80002C00D1B0E0160000D1C9
S1230800ADE080214905884200D2A8E08119491E964A914200D3A2E069468B70012B0FD175
S1230820761CB1B24A1E07D0230001991D7849195B1C521EFAD101910199CA43521C0192E0
S123084045086D00471BFFB2002302226946280000F09AF8002800D181E00220C01BB1B26D
S1230860884217DB68462178C155641C7F1CFFB2761EB1B2012902D03004F3D118E0C019D3
S123088069468978012901D1019900E02178017000260DE0012F0BD8B81E36186846C01953
S12308A00221C91B22780270641C401C491EF9D16846007807026846407807432800FFF717
S12308C01DFF00284BD139002800FFF751FF002845D1AD1C2F00B0B2022819DD207869460E
S12308E0087060784870A41C09780F0207432800FFF704FF002832D139002800FFF738FF76
S123090000282CD1AD1CB61EB0B20228E6DC2F00002530042ED0002302226946380000F01F
S123092033F800281BD068464019B1B2012918D021780170641C6D1C761E3004F3D16846AC
S123094001780C02407804433800FFF7D7FE002805D121003800FFF70BFF00280AD0002091
S123096009E069468978012902D101990170E6E72178FBE7012003B0F0BD000002000240C5
S12309800C3000F008300000F0B40C000021012B00D1521C002C0BD0150409D080256D05A3
S12309A0A84205D395B245196D1E304EB5421FD3002002E015041BD10120F0BC704700202F
S12309C0FBE700780918C8B2401E8041C00FF4E70778401C2770641CC919521E97B2012F98
S12309E0E8D12D783542EAD0012BEAD0057825708026814D2F783742EAD1E0E77C49002071
S1230A00486088609622D2004A800870487079498A68202313438B60784A1060486840075D
S1230A20400F48600868930C03430B607448906048205061106808230343136080208002B8
S1230A40704A1368034313606F4A13681843106088688022520302438A6004206C4908703E
S1230A607047000010300000113000000001001038B50120654D2968C90901405DD05C4CF0
S1230A802178002902D0012908D04FE02070442028606868A0606868E06049E06968A0682F
S1230AA08142696804D2081A80214902401800E0081AA060C8218900884204D2002060705E
S1230AC04821296030E061680B224243914207D2002161702161606048202860217027E02D
S1230AE06078002801D1E1682161401C6070C0B2042803DC48202860002015E0696820694D
S1230B008142696804D2081A80214902401800E0081A20615348216901F083FA60800020EB
S1230B20286001F092F90220207001E0002028602868286880214140296031BD354880219B
S1230B40090202690A43026102681143016029480168022291430160704710B50024092848
S1230B6001DB052403E07149087400F0BEFF200010BD70B40A00040941080D004540860815
S1230B806E4025007540AD0140263540C6084E40744041096140CC01E1437F24A143294361
S1230BA0012A09D1C0220240C9B28A4201D0FF2103E08106890E00E00143C8B270BC70474E
S1230BC010B43C2901D07D2900D10021027813000AD080235B00401C047809198CB29C4204
S1230BE000DBFF39521EF6D1C843C0B210BC704760FEFF1F04800440060002400080034058
S1230C00FFFF000080E200E000E100E01480034003A0064004F00F4038B5134C00212174CA
S1230C2000F0E5F87C4908737D494200101880000D18A878012811D1207E00280BD0207D65
S1230C40032808D000F01FFA207E401E20766878FFF783FF31BD00F0C5FF31BD687800F03A
S1230C603BFF31BD0095BA0A00FCFF1FF8B50400694D6B48297B4A00511889004018077903
S1230C8046790120287200F0A4F8012E07DBFF2029000E31FAB288547F1C761EF8D1200012
S1230CA000F06FFE5D48017824220A4302705D498A7E0A2A0CD0CA7EFB231340CB765A4A54
S1230CC04023CA5200228A76817802220A438270F1BD0000F8B5554C01252572E17A0129D5
S1230CE002D100216172E172070000F080F80600267300F049F8300000F05CFE380000F0F5
S1230D0040FE3D2F11D14749C88E401EC886022280B2002804D18874CA750A75C874F1BDBA
S1230D20FA20C00008878D74CA74F1BD50FCFF1F38B505000C00200000F059F83649087396
S1230D40ED1E042D19D801224A723C2C08D1354903224A758A7502220A7100220A7608E0B8
S1230D603D2C07D12F490322CA750622304B1A710022CA7403212B4A117500F01BFE20007C
S1230D8000F0FFFD31BD000070B425494200121892008E18317973793478244A012C06D18B
S1230DA0002415001035B6683678AC5501E0112C0CD0012B07DBFF2415000E35CEB2AC55E0
S1230DC0491C5B1EF8D100211032115470BC7047000080B51648407C002805D111480121F5
S1230DE001740A21817601BD00F0F4F901BD01000320104A13798B420CD00220D3788B4212
S1230E0008D0012093788B4204D0002052788A4200D0FF20704700007CFCFF1F03A006404E
S1230E205824000000FCFF1F102700007CFCFF1F50FCFF1F94FCFF1FF1B586B00E00002029
S1230E40694688810124974FBC75787D022806D0032877D0062875D00528FDD172E0012250
S1230E60390001A800F097FA01AD697806980A0903D0022A25D00DD361E00907090F01800D
S1230E80A87830708C425ADAA81C005D3055641CE4B2F7E70902F02212010A40A9785118EE
S1230EA00180E8783070287970706879B070A879F070E8793071481F80B2049005206946A7
S1230EC08881009668468489049E24E00122390001A800F060FAA8780099A2B28854641C56
S1230EE0E8780099A2B28854641C28790099A2B28854641C68790099A2B28854641CA87910
S1230F000099A2B28854641CE8790099A2B28854641CB61FB6B2072ED8DA002E0FD0012286
S1230F20390001A800F037FA00210098AA1C525CA3B2C254641C491CC9B2B142F6DB0020CE
S1230F4078750220B87507B0F0BDF5B482B00D009F48407C6946C870032603217F246846DD
S1230F60027A037BFF206F46B87078703870B5483F7A102F0CD0222F12D0272F34D0312F29
S1230F802AD0342F1DD0362F1FD0372F28D03EE0012D3CD1022150246A46127BFF2336E0EC
S1230FA0012D34D162240621F12285236D46AD796F46BD706D466D797D706D462D793D704B
S1230FC025E0012D01D1062101E0012D1FD13C464034038D1A0A1AE0012D18D1712416E09C
S1230FE0012D14D1772412E0012D10D1784CE47F082C0BD108210122C04C237865786F4682
S1231000BD70A5787D70E4786D462C70672406710125C5806D46EF78C5680688F600AF55AE
S1231020C5680688F600AD196970C1680588ED0049198C70C1680488E4000919CA70C1683D
S12310400288D20089180B71C1680288D20089186A4692784A71C1680288D20089186A46A2
S123106052788A71C1680288D20089186A461278CA715749408888860120C886C87508766C
S123108004B0F0BC70471CB56E4C00222100684600F081F9082269462000113001F032F8FA
S12310A013BD000000FCFF1FF8B541780A0903D0022A56D01DD3F1BD0807000F06284CDC92
S12310C00227434C67750020A074012525752060E08020715B4E012221003000113000F0C5
S12310E00FF920217554F577E07C06286CD0E7746AE00902F02212010A4080781518ADB205
S1231100E81F1D2829D2324CFA20C00020870220A07400262660E68026714A4F01222100C9
S12311203800113000F0ECF86D1F00950098062100F074FF05000098062100F06FFF0029D0
S123114000D06D1CFD770120202178542675E07C06283BD00420E074F1BD00201C49C87479
S1231160F1BD1B4CFA20C00020870226A674354D2020285C0907090F814215D1401CC1B2AD
S1231180102900DB002020216854E87F401EE877012221002800113000F0B2F8E07C062825
S12311A007D00420E07404E006206075A0750020A074E87F002809D16675A07401202075A6
S12311C0E07C062800D0E67400F03EF8F1BD000000FCFF1F10B51B48427C817C0B09A94980
S12311E04A74CC7C022C01D0042C1BD17E2A08D10C7D002C16D1FA20C00008870220887426
S123120010BD022C0ED100220A750260C280052303710A60CA800A710223CB754A758B75BC
S12312200A7606E00C7D032C01D1022B08D07E2A01D0042200E00622CA741130FFF734FF66
S123124010BD000050FCFF1F80B58E48C1680288D20089180A787E2A08D10021C1740222A5
S123126002758948C1772022815401BD48780009012801D1C87800E08878002101221028B5
S123128013D1B14B5A54102832D0222833D0272808D0312820D0342821D0362822D03728C9
S12312A023D001BD00F08DF901BD01212228E8D002212728E5D003213128E2D0042134284A
S12312C0DFD005213628DCD006213728D9D011220021FFF73AFE01BD00F08CFA01BD00F098
S12312E0B7F901BD00F0FCF901BD00F0BFFA01BD00F0CCF801BD00F029F901BD7CFEFF1F98
S123130030B4CB680C79032C43D0052C01D0002C06D1002A01D1042200E001220A7108E05E
S12313204A880C89551CAC4201D1002200E0521C4A8002784C88E4001A554A88D2009A18E0
S1231340447854709A1C4C88E400857815554A88D2009A18C478D4701A1D4C88E4000579F1
S123136015554A88D2009A18447954719A1D4C88E400857915554A88D2009A18C079D07180
S1231380C888401CC8800A8980B2904201D30320087130BC704710B4CB680C79002C30D003
S12313A0052C2ED00C88E4001B191C7804705C7844709C788470DC78C4701C7904715C794F
S12313C044719C798471DB79C371C888401EC880030405D1002A01D1052206E0002204E0E0
S12313E0002A01D1042200E001220A71000408D008880B895B1E984201D1002000E0401CC8
S1231400088010BC704710B40120B049B04A13780C78A34200D0002053784C78A34200D0BD
S1231420002093788C78A34200D00020D278C9788A4200D0002010BC704738B5A54DA64C09
S12314400123022221002800FFF79EFA20785A2801D1012032BDFF2802D10020208009E0CA
S123146060780109052903DA0007000F052801DB002060700123022221002800FFF7B4F938
S1231480002032BD00FCFF1F50FCFF1F38B584B001ADA91C6846FFF7CFFC68460088022852
S12314A04BD18D4C20780109E1700007000FA070E878012806D0022816D003281BD08128EC
S12314C021D026E0FFF79FFF002801D17F2221E00020607007208149C8770122012110204C
S12314E0FFF733FD01200CE0022201211020FFF72CFD022005E0032201211020FFF725FD8A
S12315000320A0700AE007207449C8778122012101E0122200211020FFF717FDA078E178E1
S1231520814207D0084360700123022221006948FFF75AF9A078E07004E0132200211020BD
S1231540FFF703FD05B030BD74FEFF1F10B584B001ACA11C6846FFF76FFC6846008802288D
S12315600CDDE078000221790843FF21C231884202D14022012103E0312200E0132200219F
S12315802220FFF7E2FC04B010BD10B4007802060304D2180302D21810182322B04B4400E0
S12315A0002802D52000584000E02000521EF6D1020E0A70020C4A70020A8A70C87010BCDD
S12315C0704770B584B001A96846FFF735FC01AE7078012812D108204049C877A14C00F008
S12315E09FFD207000F09CFD607000F099FDA07000F096FDE0704022012124E0022820D156
S1231600364CE07F08281CD1964D291D2800FFF7BCFF2879B178884202D00820E07710E0F1
S12316206879F1788842F8D1A87931798842F4D1E87971798842F0D10920E0774022012195
S123164001E0122200212720FFF77FFC04B070BD70B586B001ACA11C6846FFF7EDFB1F4DFA
S1231660E078012809D1E87F09282DD10120E877402201213420FFF768FCE87F042823D13C
S1231680E078002820D160790002A17940186864C74E207A0002617A4018F084686C9821D7
S12316A0890188420BD1402201213420FFF74DFC01203085002070850520E87704E0312239
S12316C000213420FFF741FC06B070BDFC7F0000A4FCFF1F2000001076FDFF1F00FCFF1F67
S12316E0F8B58EB000256048C07F012802D14022012169E0052865D1B64C01A92000CC30FB
S1231700FFF79AFBCC20215A881E0CD001AB5E1CFF231B023778ED191D4201D06D1CEDB2DF
S1231720761C401EF6D101A84218521E1278FF236B40DBB29A4245D10E1FCC2166529C4DEA
S123174041780902827889182985698D2A8D4F1CBA4230D1B2B2002A677804D0C11C201D08
S1231760C01900F0CFFC2000CC30F11901800088810821708007800F607020788200211D4A
S12317803948406CFEF71AFF0021230068333648406C00900246201D03E0491C401C521CDA
S12317A05B1C2678B600B14213D216781E700778BE42F2D006E08A4204D1288D688540229A
S12317C0012101E0132200213620FFF7BEFB0FB0F0BD009880192449486460780028ECD035
S12317E0211D221D921913780B70521C491C401EE3D0F8E710B586B001ACA11C6846FFF7EB
S12318001BFBE078012812D1607900280AD1AF4C0120E077402201213120FFF796FB02207D
S1231820E0771AE0012813D14022012112E003280ED16079002806D1A448C07F042807D1BF
S12318404022012106E0012802D14022012101E07F2200213120FFF778FB06B010BD0000BA
S1231860FCEBAD7F7CFEFF1F00FCFF1F38B5974CE07F012810D005282FD10422944995485A
S1231880FEF79CFEFFF7BFFD002805D1132200213720FFF75AFB31BD03214F4801710122CF
S12318A0C280627CC3680588ED005A55C2680388DB00D2185170C168891C0288D2007723B1
S12318C08B54C1680288D20089183722CA70C168091D0288D20040231FE003213E48017143
S12318E00122C280627CC3680588ED005A55C2680388DB00D2185170C168891C0288D200E8
S12319007F238B54C1680288D20089183722CA70C168091D0288D20013238B54FF21C2687F
S12319200388DB00D2185171C268921D0388DB00D154C2680388DB00D218D1714088012187
S12319402176E175E186A08631BD80B500F070F901BD10B56E4C20680106C90F10D0206881
S12319602068802141402160606800F059FC0022684B00F065FC00F037FD606000F0D0F869
S123198010BD10B464490A7A4B7A54001C431A43920022434D4B1B7CDB0013438A7A9201BE
S12319A01A43000210438C4A02408A8210BC704750FCFF1F5949420010188000085C012847
S12319C007D055480179EF220A40417A0901114301717047A8FCFF1F50FCFF1F40217F4824
S12319E002680A4302607E480268072313430360C2681143C160C16810220A43C2604E21DF
S1231A000161016808220A4302608020C0027E490A6802430A607D490A681043086070472A
S1231A20F8B52A4C7A48E06400250027794E7A4840880090B81C7043009900F0EFFAC01C77
S1231A40210024317A0088527F1CB81C7043009900F0E4FAC01C210024317A0088527F1CEE
S1231A60082FE4DB6D48009900F0D8FAC110090F0818001159490A6880235B0313430B606C
S1231A806749C204D20E0A7048708D702C20C8704879862202434A7102208A790223134330
S1231AA08B710A78802313430B704A79EF2313404B71E27EFB231340E3765A4A4023E252E7
S1231AC0A5764A7910434871F1BD000000FCFF1FA4FCFF1FFC7F00005349CA6C10700020A5
S1231AE008778A6406208876704738B54E4CE56CA17F2800FFF764F8691C2A788854012004
S1231B0020776878494908700720A07631BD00000C900340008853407CFCFF1F5824000009
S1231B2010B5414CA17C208F022909D1401E82B2002A11D10321217505216175A17509E02B
S1231B40012909D1401E82B2002A05D1032121750421E1750021E2742087A174A07E00283D
S1231B6008D0801E02281DD9001F21D0401E012818D910BD4020205A00280FD101202074DF
S1231B80FF20FFF7FEFE0A20A076264840216052B7480178FD220A40027010BD401E402190
S1231BA0605210BDA08F002810D0401EA08710BDE08F00280DD1207F002807D0E07E022185
S1231BC00143E176617F0720FFF7B2F800F00AF810BD401EE08710BD4FFF00000C80044050
S1231BE00090034000BF1048C17EFB220A40C2760C4940228152002181769D4801780222F5
S1231C000A4302707047000080E200E000E100E060FCFF1F606D000060FEFF1F002D310125
S1231C2000A006401027000000FCFF1F07A00640F8B5904C267967798F4DC02038404028D8
S1231C4016D160794021014361712078BF2101402170A87E0A2803D1FFF7C4FF002028745E
S1231C6020788021014321706079EF2101406171B00715D52079022101432171E079E87E64
S1231C800A210143E976A87E062803D0072801D0082803D1697F0420FFF74AF8FFF7A2FF6C
S1231CA0802007421CD06179084360714020217840220A43227021784906490E2170A97E24
S1231CC00A2900D196E00421E976698EA9872178084320700320A8766079FD2101409BE073
S1231CE02079E679810600D497E0A97E032908D004290BD0062929D0072950D00A297CD0EC
S1231D00F1BD552E52D10420A876F1BD01213000FEF72FFF6877AE773C2801D03D280CD18B
S1231D200021698701216976FEF776FFE86C007840002818408CE887F1BDE87E40210143E3
S1231D40E976FF210320FEF7F3FF53E0A86C401CA8640670E86C297F027891421BD1EF7E2F
S1231D60A97FFEF72DFFB0420CD101203843E876E078DB210140E1700920A876687F2021F8
S1231D80685408E012203843E876697F0520FEF7CFFFFFF727FF287F401C2877F1BD40060E
S1231DA004D5297FE86C425C964204D0697F0620FEF7BEFF1EE002788A4205D3491C29771F
S1231DC0C9B2405CE071F1BDE87F022801D10320E877E87E01210143E976E078DB21014044
S1231DE0E1700920A876687FFEF774FFE07824210143E170FFF7F6FEF1BDF02E07D0E02E2B
S1231E0005D0C02E03D0802E01D0002E05D1FFF7E9FE6079022101436171F1BD68486949A6
S1231E2008606948A4210170012141700F210171A0214171012070470F480021C17720229D
S1231E408154624801807047000080B5FFF7C6FD0020FFF7E5FD802040015D490A680243A3
S1231E600A605C490A681043086001BD0000000005A0064000A0064000FCFF1FFEB50024A2
S1231E80FEF7C6FAFEF75AFE5348FEF7E5FAFFF7D3FFFFF7D2FA012807D0FFF7B4FA012876
S1231EA003D14E4800888047FEE7FFF7CEFFFEF7A5FD01940027FEF7C7FA49480078002883
S1231EC004D0484CFEF7D2FE202167544548C07F03286CD10198582860D30197042041490F
S1231EE0C8773A490F706846078038484078C443641C0023022269463B48FEF745FD0028D1
S1231F002DD0324801786A46117040786946487009780E020643344D2800FEF7EFFB0028F3
S1231F201DD131002800FEF723FC002817D1002302226946A81CFEF727FD00280FD06846AA
S1231F40047001780D0240780543284C2000FEF7D5FB002803D129002000FEF709FC224D7A
S1231F601A4C0123022221002800FEF70DFD20785A28B6D02146FF2801D10F8008E0487830
S1231F800209042A03DC0007000F042800DD4F70012302222800FEF727FC08E01330400252
S1231FA0FEF785FA0199491C0191084988800D48C07F072800D07EE738888047FEE700005B
S1231FC00000000008ED00E00020054076FDFF1F80E200E000E100E0002D310104260000A6
S1231FE020FCFF1F00FCFF1F2000001022000010F446002804D4494200F013F8404260473E
S12320004042002905D45FD000F00BF8404249426047494200F005F84942604703460B4321
S1232020E6D40022030A8B420BD203098B4219D243088B422ED2411A00D2014652411046D0
S12320407047FF2209023FD012068B4205D3121209028B4201D31212090203098B4219D309
S123206000E0090AC3098B4201D3CB01C01A524183098B4201D38B01C01A524143098B4284
S123208001D34B01C01A524103098B4201D30B01C01A5241C3088B4201D3CB00C01A5241E5
S12320A083088B4201D38B00C01A524143088B4201D34B00C01A5241884200D3401A5241CA
S12320C0CFD201461046704708B500F0A5F908BD70B4103A03D378C9103A78C0FBD25307C9
S12320E001D318C918C001D508C908C0D20704D30B880380891C801C002A01D50B780370E3
S123210070BC70478B0701D18307E1D0124205D00B78491C0370401C521EF9D17047FEE783
S1232120F0B53A480078002859D13848406838494843384940183849FFF773FF34484143B4
S1232140344808183449FFF76CFF31484143314808183149FFF765FF2D4841432D48081809
S12321602D49FFF75EFF2A4841432A4808182A49FFF757FF26484143264808182649FFF766
S123218050FF23484143234808182349FFF749FF1F4841431F4808181F49FFF742FF1B4854
S12321A041601E4D102604461A4F606818494843C0191949FFF735FF6160296014484143E3
S12321C0C8191549FFF72DFF616069600835761EEBD11248C16F80228150012020700B4C7E
S12321E060680B4948430B4940180B49FFF719FF61600A4B180080300278D206520E9A18E4
S123220013680360116098008008F0BD9CFCFF1F0D6619005FF36E3CFFFFFF7F7CFDFF1F4D
S1232220010042221201D21E004207D002D4521E0018FCD5C10A400512058918704700006B
S1232240F0B40125ED070F005F404FD48B4200D1824205D98446100062468C461900634695
S1232260DF184C18640D7F0D3AD0661C760537D0E61B352E34DCDB022B43DB0A0C0DC9026C
S12322802943C912202E0DDB1700203E06D01F00F741F3405F400026012A7741C0187141B6
S12322A00DD217E01700F741F2405740F3415A40B340F3405A400026801859410AD3A21CAB
S12322C052050FD0C207012F724117004008CB0718434908641C24054208AF417041614105
S12322E0F0BC7047641C21050020F9E76B400AE06B40ABE7F742F3D1E943F1E72442EFD1D8
S123230000200021ECE70C00871A9C4105D2C01BA141D219634169406B40AE0ADF184C1891
S1232320F442E7D2640D7F0DE8D0E61B362ED7DCDB022B43DB0AA4460C0DC9022943C90AA0
S1232340012E28DC04D1D6075208DF073A435B08EF0A76429041994114D039423BD1B619DE
S123236040414941761C394204D1761C001849413942FAD0B9436746B74208D9A41B240588
S12323802143ADE70042EAD13642E8D1A8E7E40AE1070020A4E7202E0BDD203E1F00F3401D
S12323A0F7415F40012A002257417E42984191410BE01700F741F2405740F3415A40B3402E
S12323C0F3405A407E42904199410A0303D2641EB619404149410027641E24054208AE4178
S12323E078416141F0BC70474A1812D2400DC90208430121C9070843520D40210901521AFF
S1232400521C06D452421F3201D4D0407047C0177047002070470000704770B40123002467
S123242013E00168001D194202D04D466D1E49190C60091D121F042AFAD20D00960701D535
S12324400C80AD1C1A4000D02C700268001D002AE7D170BC704700000003100000010000FD
S123246000000000000501030101000058250000110810000000000000000000110801008D
S1232480000000000000000030B401220168001D00290FD00368C31844680830144202D051
S12324A04D466D1E64191D6825601B1D241D091FECD0F8E730BC704710B507497944183179
S12324C0064C7C44163404E0081D0A68891888470100A142F8D110BD080000002800000007
S12324E03BFFFFFFDC010000A8FCFF1F0000000099FFFFFFA8000000BCDBFFFF00FCFF1F14
S123250000000000FFF78AFC002801D0FFF7D4FF00BF00BF002000BF00BFFFF7AFFC00F0CC
S123252000F880B500F002F801BD00000746384600F002F8FBE7000080B500BF00BF024A2C
S123254011001820ABBEFBE72600020000BF00BF00BF00BFFFF7D6FF01FFFFFFFFFFFFFFFA
S1232560FFFFFFFFFFFFFFFFFFFFFFFFFFFFFFFFFFFFFFFFFFFFFFFFFFFFFFFFFFFFFFFF77
S1232580FFFFFFFFFFFFFFFFFFFFFFFFFFFFFFFFFFFFFFFFFFFFFFFFFFFFFFFFFFFFFFFF57
S12325A0FFFFFFFFFFFFFFFFFFFFFFFFFFFFFFFFFFFFFFFFFFFFFFFFFFFFFFFFFFFFFFFF37
S12325C0FFFFFFFFFFFFFFFFFFFFFFFFFFFFFFFFFFFFFFFFFFFFFFFFFFFFFFFFFFFFFFFF17
S12325E0FFFFFFFFFFFFFFFFFFFFFFFFFFFFFFFFFFFFFFFFFFFFFFFFFFFFFFFFFFFFFFFFF7
S123260050070020A5770000E3740000E37400000000000000000000000000000000000075
S1232620000000000000000000000000E37400000000000000000000E3740000E374000091
S1232640E3740000E3740000E3740000E3740000E3740000E3740000E3740000E3740000BE
S1232660E3740000E3740000E3740000E3740000D1450000E3740000E3740000E3740000DF
S1232680E37400002B2D0000D9450000E37400009D690000E3740000E3740000E374000007
S12326A0E3740000E3740000E3740000E37400001D710000A2480168802292050A430260F1
S12326C0B6480169B02212010A43026138210160002141607047FEB500250A00009110D073
S12326E00E4601908027AE4C0198206001E004F00DFD20683840FAD0206980B22D18761EFA
S1232700F2D12800009904F034FD80B203B0F0BDA448017802220A430270A3494A78FF2A5B
S123272008D08270C278FE2313400978CA07D20F1A43C270402102790A42FBD0427820236B
S123274013434370027911430171704700000000002808D0C821090100BF491E0029FBD166
S1232760401E0028F6D17047010004D0002800BF401E0028FBD17047FCB48C4908001E30B1
S1232780A54E0224A54D8022A54B1F78174200D193E03778761C0770401C6419A7B2012F4A
S12327A000D186E0270400D187E0EEE7270400D19CE08BE0270400D1B0E09FE06846007892
S12327C0984CE07268460190974D02261F78174200D1AEE02F786D1C0770401C761EB7B225
S12327E0012F00D1A1E0370400D1A2E0EEE76846007820738D480023C3604377E373857C0B
S1232800E0262E438674C57CF7272F40C7740125F827374001263E4386740D764778F8267C
S12328203E40022737434770477CFC263E4001273743477406797606760E067103877826DE
S12328402027CE554B76A371E570964EF3852371A3735026CE75CB760B7704264E770B75EF
S12328604383237740268353C383E3742375A374A375E37523766377A377C355E377837505
S123288063722372838203774B82C3634376E555CB730B748448842101704378C8211940C9
S12328A0417083781A408270BF220A404270F3BC70471878104200D03078887FFF2801D17F
S12328C0642088770E001F36784802241F7817420CD00778401C3770761C6419A7B2012F42
S12328E000D063E71C78144200D00078C87FFF2801D16420C8776E466D4802241F78174206
S12329000CD00778401C3770761C6419A7B2012F00D04FE71C78144200D00078684600785F
S1232920FF2800D04AE7A8204AE71878104200D0287868460078FF2800D058E7A82058E7BD
S12329400C80044030B500245A4904F012FC401E594980228B79134201D1584830BD3F2339
S12329600D786D0611D40D78154207D00A781A403F250540AA4201D0B74830BD0A78C0252E
S1232980154003402B430B7005E0097819400340994200D0B04C200030BD000008B0034001
S12329A000B0034000400640FE030000B404002010B401000020A94A30231371107012235D
S12329C013720B0C5372012313705172090A11723B490B68802464021C430C6080211171A3
S12329E013790B42FCD01179890600D59C481179C90602D501009B480843032113790B4200
S1232A0002D00300B548184312790A4202D00100B348084310BC704710000010FFFF0000F4
S1232A20060002400000002016000010DC03002030B402000020894B30241C71187011248D
S1232A401C72140C5C7201241C705A72120A1A7202221A700A0A5A7203221A705972184968
S1232A600C6880256D0225430D60802119711C790C42FCD01979890600D579481979C90603
S1232A8002D50100774808431979114202D00100924808431979114202D001009048084398
S1232AA030BC7047C40100202C020020120000101400001040420F000000024014300000DF
S1232AC00C3000F0FEB50C0000210191694600250D80002C00D1B0E0160000D1ADE0802151
S1232AE04905884200D2A8E08119491EBE4A914200D3A2E069468B70012B0FD1761CB1B284
S1232B004A1E07D0230001991D7849195B1C521EFAD101910199CA43521C019245086D0018
S1232B20471BFFB2002302226946280000F09CF8002800D181E00220C01BB1B2884217DB66
S1232B4068462178C155641C7F1CFFB2761EB1B2012902D03004F3D118E0C01969468978DC
S1232B60012901D1019900E02178017000260DE0012F0BD8B81E36186846C0190221C91BF9
S1232B8022780270641C401C491EF9D16846007807026846407807432800FFF709FF0028EB
S1232BA04BD139002800FFF743FF002845D1AD1C2F00B0B2022819DD20786946087060780D
S1232BC04870A41C09780F0207432800FFF7F0FE002832D139002800FFF72AFF00282CD1C1
S1232BE0AD1CB61EB0B20228E6DC2F00002530042ED0002302226946380000F035F80028ED
S1232C001BD068464019B1B2012918D021780170641C6D1C761E3004F3D1684601780C0275
S1232C20407804433800FFF7C3FE002805D121003800FFF7FDFE00280AD0002009E06946A0
S1232C408978012902D101990170E6E72178FBE7012003B0F0BD0000183000000200024012
S1232C600830000010300000F0B40C000021012B00D1521C002C0BD0150409D080256D058C
S1232C80A84205D395B245196D1E574EB5421FD3002002E015041BD10120F0BC7047002005
S1232CA0FBE700780918C8B2401E8041C00FF4E70778401C2770641CC919521E97B2012F95
S1232CC0E8D12D783542EAD0012BEAD0057825708026924D2F783742EAD1E0E71130000001
S1232CE0123000008E48016820220A4302608D48016807220A430260C16840220A43C2604E
S1232D00C16810220A43C26087490161016808220A4302608020800284490A6802430A6061
S1232D2083490A68104308607047F8B5814C20688149898C6A4611800106C90F4FD0206837
S1232D402068802141402160606804F069FA00227A4B04F075FA04F047FB6060784C207889
S1232D60401C20706078401C6070A078401CA070E5786D1CE570734E37787F1C3770684640
S1232D800088401C6946088003F061FA002069460988C8225200914203DB6A461080012117
S1232DA0B1702178002902D02070012121716178042902DD607001216171A1780A2902DB44
S1232DC0A0700121A171EDB2322D02DBE0700121E171FFB23C2F02DB3070012070706846C4
S1232DE0008855498884F1BD0001001056488021090202690A4302610268114301605349BE
S1232E0002690A400261426911404161504902690A400261426911404161402102690A4390
S1232E200261026811430160802102690A43026102680A430260474A1368194311608021BD
S1232E40890103690B43036103680B43036013681943116040490A6802239A430A600421D6
S1232E60C94302690A4002614269114041610821C94302690A400261426911404161016937
S1232E80012291430161416991434161022102690A430261026811430160304902690A402A
S1232EA002614269114041612D4902690A4002614269114041612B4902690A4002614269AA
S1232EC011404161284902690A400261426911404161264902690A400261426911404161AF
S1232EE0990502690A430261026811430160204902690A4002614269114041611D49026906
S1232F000A4002614269114041611B4902690A400261426911404161704700000600024049
S1232F200C800440008003401A06000080E200E000E100E00C800340C4010020006A9840E1
S1232F40320500200000002004F00F40FFBFFFFFFFFFFFF70490044004800440FFFFFEFF68
S1232F60FFFFFDFFFFFFFBFFFFFFDFFFFFFFBFFFFFFFFFFEFFFFFFFDFFFFFFFB10B50024ED
S1232F80092801DB052403E09649087401F0F2FB200010BD70B40A00040941080D004540D8
S1232FA086086E4025007540AD0140263540C6084E40744041096140CC01E1437F24A143FB
S1232FC02943012A09D1C0220240C9B28A4201D0FF2103E08106890E00E00143C8B270BC55
S1232FE0704710B43C2901D07D2900D10021027813000AD080235B00401C047809198CB2E7
S12330009C4200DBFF39521EF6D1C843C0B210BC704780B501F044FB002001F06DFB802006
S1233020400171490A6802430A6070490A681043086001BDF0B5F8246D4D07266D4F687888
S12330402040797B31400143697028788006800EB97A8909890101432970F87B0001B97B02
S12330600909401841000818282104F082F82887387AA97C4907490F182202400A43410989
S123308049011143A974EA7CF72313409C467A7A1207D30FDA0063461A43EA7421403040BE
S12330A00843A8741440797A0E402643EE74B97D6B7CF8221A404B07DC0FA3008907890FAC
S12330C01943114369744D493A7D2023CA54400903D0022805D002D305E0012004E00220B5
S12330E002E0032000E0042048745020C875F0BD0000F8B5424C43483D4D298E814205D00E
S1233100698E814202D0607A012801D10020E8760326687C3040012808D168784007400FD7
S1233120042803DA002801D00020A87503F0BCF903F0E6F903F02CFA2E480178FC220A4062
S1233140E97E0E40164306702B4901232027CB55227894091C4202D00423334301E0FB23E5
S1233160334003700478F723234003706C7F002C02D010241C4301E0EF241C40047004783D
S12331809F232340CC7F6401602626401E4306707F238024D20901D0264300E01E40067084
S12331A04678C8223240EE5D770006263E4016434A7A170130223A403243427086783440EB
S12331C0097A0B4023438370A97D002902D04021114301E0BF2111404170FF218171C171E7
S12331E0F1BD00000402002080E200E000E100E0DC0300202C02002000000020B4040020AF
S123320024050020FFFF000070B50400774E0020B074200000F01BF9B077FF2832D09A49DA
S12332204200101880000D182878012814D1A8680078964909182022895C002922D0AE490C
S12332400C5C200000F003F9B077200001F015FA6878FFF793FE70BDA978012915D10028C2
S123326004D10021200000F013F9F1E7707F002808D0707E032805D000F012FD707F401E37
S12332807077E5E701F00CFB70BD687801F064FA70BD70B5040055487B49827F53009A1866
S12332A0920089180E794D79012202740878002804D10121200000F0EBF803E0112801D171
S12332C000F0B7F8012D06DB8C48FF21F2B28154761C6D1EFAD1200001F0A4F970BDF8B55F
S12332E0424C012525748649CA7F012A02D100226274CA77070000F0AAF80600A67700F082
S123330077F8300001F0A8F9380001F08BF93D2F10D1608D401E6085022180B2002804D1FC
S1233320E075217761762076F1BDFA20C000A085E5752176F1BD000030B40523714A94790F
S12333408C4214D0042354798C4210D0032314798C420CD00223D4788C4208D00123947871
S12333608C4204D0002352788A4200D0FF231F4A9377C01E042816D8012050743C2907D16F
S123338003209076D076022010710020507707E03D2906D1032010770620594B18710020EF
S12333A0107603205076507C374B947F65002C19A4001B5D012B06D0534B5C78F72525407E
S12333C0C4002C435C70137C5C000443034398002043937CDB000343D07C80011843090214
S12333E001434A480840D08430BC7047C401002030B425494200121892008B1819795A7977
S12334001C78012C05D10024424D9B681B78EC5401E0112C0BD0012A06DB384BFF24CDB25E
S12334205C55491C521EFAD100213A4A115430BC704780B53248407C002805D13448012183
S123344081740A21C17701BD00F0F2FC01BD010005202C4A93798B4214D0042053798B42A0
S123346010D0032013798B420CD00220D3788B4208D0012093788B4204D0002052788A427B
S123348000D0FF2070470000907600000000002070B48D481E4A927F53009A1892008418B7
S12334A0637817480374E278002916D1A168002904D00978122901D10121C177012412497F
S12334C0E3B2057C6D1CAB4214DAD5B24D5D06001036F554641C521CF2E7591C012909DD5C
S12334E00100113108480C78D5B24455521C491C5B1EF8D170BC70474D0200203C050020C9
S1233500040200204C0200202C0200204FFF0000C401002020000020F3B585B007000490DA
S1233520012569460D80AE4E307F022800D0C8E0AC490D70062F01DC012411E0781F039014
S1233540062103F013FE694688700398062103F00DFE00296846847801D1641C00E0A41C10
S12335607477A1480089A049C988401AE1B2884200DAA6E09C4840883085E0B27085357705
S123358000207076317D062F1EDC01A8017047700699097881700699841C02E08B5CA35463
S12335A06D1CEAB2BA42F9D3FFB2062F06DAFF220621C91B801CC01903F06CFF00228A4960
S12335C001A800F0F7FC7CE001AD29703805000F102101436970AF7006980078E8700698F3
S12335E0407828710698807868710698C078A87106980079E8710520694648800498471F0A
S1233600BFB20022784901A800F0D4FC601E317D2970010655D0C0B2069E3D0069464C8822
S1233620039001A8694609880907090F20220A43427069460988491C6A461180694609887B
S1233640102901DB00211180062D17DA0021002D09DDA2B2B25C831CCFB2DA55641C491CB1
S1233660CAB2AA42F5DBEBB2062B21DAFF220621C91A801CC01803F00DFF19E0A1B2715C8E
S12336808170641CA1B2715CC170641CA1B2715C0171641CA1B2715C4171641CA1B2715C60
S12336A08171641CA1B2715CC171641CAD1FADB200224D4901A800F07DFC0398401E039041
S12336C0AFD107B0F0BD000090760000F1B586B00E000020694688810124414FFC76B87EDD
S12336E0022806D0032877D0062875D00528FDD172E00122390001A800F0A7FC01AD69786D
S123370006980A0903D0022A25D00DD361E00907090F0180A87830708C425ADAA81C005D53
S12337203055641CE4B2F7E70902F02212010A40A97851180180E878307028797070687925
S1233740B070A879F070E8793071481F80B20490052069468881009668468489049E24E0C1
S12337600122390001A800F070FCA8780099A2B28854641CE8780099A2B28854641C287931
S12337800099A2B28854641C68790099A2B28854641CA8790099A2B28854641CE87900994E
S12337A0A2B28854641CB61FB6B2072ED8DA002E0FD00122390001A800F047FC0021009833
S12337C0AA1C525CA3B2C254641C491CC9B2B142F6DB0020B8760220F87607B0F0BD0000A0
S12337E0C40100202402002004020020F1B592B0B84D08AC287D2070032060707F23A370F6
S123380012AE3678E6702271FF266671A671E67112AE3678102E17D0222E34D0272E00D1D6
S123382009E22E2E00D13FE1B02E00D1D7E1B22E00D18BE1B32E00D1EAE1B62E00D1BBE1FA
S1233840B72E00D1A5E117E201290ED1022060705020A070E27001202071F42060710920A2
S1233860A071C420E071062500E003250622A11C684603F051FE69462800FFF74DFE0020BE
S1233880AC49087102E2012900D0FEE0AA498A420AD11027684662210170F12141700A2199
S12338A081700D22A54971E07D318A420AD11027684662210170F1214170872181700D22EC
S12338C09E4963E0491C8A420AD10B27684662210170F1214170882181700822984955E03D
S12338E009318A420AD10827684662210170F1214170912181700522924947E0C91F8A42CF
S12339000CD10627684662210170F12141708A2181703921C170482101714BE0491C8A42D6
S12339200BD10627684662210170F12141708B2181702021C17001713CE0491C8A420AD16C
S12339400C27684662210170F12141708C21817009227D491AE0C91D8A420AD10C276846D4
S123396062210170F1214170932181700922C8490CE0891C8A420DD10C276846622101709B
S1233980F1214170952181700922C249C01C03F0C3FD81E015398A420ED10627684662213C
S12339A00170F1214170802181701221C17000210171412141716FE05E4EB7498A421AD180
S12339C0012301220AA9B548FFF74EF90AA80078FF2801D1642001E00AA80078B077287D31
S12339E02070042060706220A0701320E07001202071B07F1CE0491C8A4221D101230122E3
S1233A000AA9C248FFF730F90AA80078FF2801D1642001E00AA80078F077287D2070042054
S1233A2060706220A0701320E07002202071F07F60710422A11C684603F06EFD04272BE085
S1233A4008318A420AD1052060706220A0701320E0700A202071AE48008E0CE0481C824225
S1233A601AD1052060706220A0701320E0700B202071A748408E6071000AA0710522A11C04
S1233A80684603F049FD052706E069460B70E2784A7022798A7003276946F8B2FFF73CFDA4
S1233AA000202449C870F1E0012933D1994B9A4206D169466E220A70F1224A708C222EE065
S1233AC0754B9A4208D169466E220A7013224A70012224E0C40100205B1C9A4206D16946E0
S1233AE06E220A7013224A70022218E008339A4206D169466E220A7013224A700A220EE0FD
S1233B00591C8A420DD169466E220A7013224A700B2204E069460B70E2784A7022798A70F6
S1233B2003276946F8B2FFF7F7FC00200149C871ACE000BFB40400200AF1000038760000A6
S1233B40487600005076000058760000012911D106256570F220A070002A12D16620E070FE
S1233B600020A080A0710622A11C684603F0D4FC062706E069460B70E2784A7022798A70B4
S1233B8003276946F8B2FFF7C7FC0020A74908707CE06A46012903D1F7201070012004E0B7
S1233BA01370E1785170217991706946FFF7B4FC00209E49887069E06A46012903D1F62068
S1233BC01070012004E01370E1785170217991706946FFF7A1FC00209449487056E0EA68A5
S1233BE0D21D2E88F600925D2A756A46012903D1F0201070012004E01370E178517021791E
S1233C0091706946FFF788FC0020884988713DE06A46012903D1F3201070012004E01370A6
S1233C20E1785170217991706946FFF775FC00207E4948712AE0012928D167207B4DA97B75
S1233C4002290CD108216170A0700121E170297A2171697A6171A97AA171E97AE171A070F7
S1233C600622A11C684603F057FC69460620FFF753FC0020687109E068460370E178417040
S1233C802179817069460320FFF746FC13B0F0BD7076000064760000011300001000001027
S1233CA01CB58748C2680179002928D0052926D00188CB00D2186B4614781C7054785C70D8
S1233CC094789C70D478DC7014791C7154795C7194799C71D279DA71C288521EC2801304B9
S1233CE001D1052300E004230371120407D003895B1E994201D1002100E0491C018008229B
S1233D006946113003F008FC13BD000012000010DC0300208CF10000F8B541780A0903D0FE
S1233D20022A50D01AD3F1BD0807000F062846DC02269E4CA6760020E07501256576206006
S1233D40E080207101222100994800F033F9A5756575207E062865D0267663E00902F0223C
S1233D6012010A4080781518ADB2E81F1D2826D28E4CFA20C000A0850220E075002626601E
S1233D80E680267101222100894800F013F96D1F00950098062103F0E9F907000098062196
S1233DA003F0E4F9002900D07F1C67750120A0756676207E062837D004202076F1BD002052
S1233DC07A490876F1BD794CFA20C000A0850225E575A07D0907090F814213D1401CC1B2F0
S1233DE0102900DB0020A075607D401E6075012221006F4800F0DEF8207E062807D00420DE
S1233E00207604E00620A076E0760020E075607D002809D1A576E07501206076207E06280B
S1233E2000D0257600F04EF8F1BD0000B404002038B52348427CC47C817C0B095B497F2AA3
S1233E400DD07E2A0BD00D7D954201D0B02C03D1012A04D0B02C02D10020487731BD0C7E17
S1233E60022C01D0042C0AD17E2A08D14C7E002C16D1FA20C00088850220C87531BD7E2AFA
S1233E800ED000224A760260C280052303710A60CA800A7102230B778A76CB764A7706E060
S1233EA04C7E032C01D1022B08D07E2A01D0042200E006220A761130FFF72EFF31BD0000B5
S1233EC00402002038B584B0384CE0682188C900401801787E290AD101A96846FFF7F6FBC7
S1233EE000202076022161766075A0753BE041780909012901D1C07800E0807800210122EE
S1233F00B22817D1784D6A5410282ED022283FD027280CD02E283ED0B02833D0B22827D08E
S1233F20B32832D0B62829D0B72824D01BE000F0A1F918E00121B628E4D00221B728E1D012
S1233F4003212228DED004211028DBD00521B328D8D006212728D5D007212E28D2D0112222
S1233F600021FFF743FC05B030BD00F0C1F8FAE700F0FEFAF7E700F0A7FAF4E7E274002211
S1233F800121EEE700220121EBE700F005FBEAE700F0BEF9E7E7B648C078012803D17F2206
S1233FA000212E20DDE700F01BFADCE7C40100201502002030B4CB680C79032C43D0052CD7
S1233FC001D0002C06D1002A01D1042200E001220A7108E04A880C89551CAC4201D10022C7
S1233FE000E0521C4A8002784C88E4001A554A88D2009A18447854709A1C4C88E4008578C3
S123400015554A88D2009A18C478D4701A1D4C88E400057915554A88D2009A1844795471AD
S12340209A1D4C88E400857915554A88D2009A18C079D071C888401CC8800A8980B290424A
S123404001D30320087130BC704710B4CB680C79002C30D0052C2ED00C88E4001B191C7832
S123406004705C7844709C788470DC78C4701C7904715C7944719C798471DB79C371C8883A
S1234080401EC880030405D1002A01D1052206E0002204E0002A01D1042200E001220A71EA
S12340A0000408D008880B895B1E984201D1002000E0401C088010BC704710B40B48C18D0B
S12340C06B4A1379012B09D1FA246400A14204DB0121D1700021117100E0491CC185D07878
S12340E08949887010BC7047B4040020C4010020F0B585B002ACA11C6846FFF7E7FA68463A
S12341000088022800D085E0E078012805D000D27EE0032870D007D37AE00122012110201A
S1234120FFF764FB012070E07748807801285CD07648807B0328744E57D15A20307000A819
S1234140801C0021018070785A30C7437F1CA14D0023022200A9891C2800FEF785FD0028BC
S12341602ED000ACA41C3078207070786070217809020143684681802800FEF719FC0028F0
S12341801ED1684681882800FEF752FC002817D10023022200A9891CA81CFEF765FD002822
S12341A00ED027702078070260780743AC1C2000FEF7FEFB002803D139002000FEF738FC6F
S12341C0002030703000032483498022834B1F7817422AD02F786D1C0770401C6418A7B2C6
S12341E0012F1ED0270420D0F1E77F2200211020FFF7FCFA012008E00120444988730322F5
S123420001211020FFF7F2FA03201949C87006E0122200E0132200211020FFF7E7FA05B09D
S1234220F0BD1878104200D0287830785A2884D1002000888047FEE710B40078020603045D
S1234240D2180302D218101823229E4B4400002802D52000584000E02000521EF6D1020EE9
S12342600A70020C4A70020A8A70C87010BC70470000002070B584B001A96846FFF726FA50
S123428001AE7078012814D1204CA07B012834D10220A07303F04EF9207203F04BF96072B6
S12342A003F048F9A07203F045F9E0724022012125E0022821D1154DA87B02281DD1A94CFA
S12342C0210028000830FFF7B7FF2078B178884202D00220A87310E06078F1788842F8D14F
S12342E0A07831798842F4D1E07871798842F0D10320A8734022012101E01222002127205D
S1234300FFF774FA04B070BD48050020B404002010B584B001ACA11C6846FFF7D7F968468A
S1234320008802284EDDE0780002217908438E49401A39D0401E3AD008383BD0401E3CD006
S12343408A49401A12D076382BD0C01F11D0401E12D0801E16D0401E17D0401E18D0401F33
S12343600DD0801E17D0801E18D029E0964A01212AE0964A012127E0A34A012124E0A34A33
S1234380012121E0A24A01211EE0A24A01211BE0A14A012118E0A14A012115E0A04A0121CE
S12343A012E0AB4A01210FE00A4601210CE04A1C012109E0A74A012106E0B64A012103E034
S12343C0312200E0132200212220FFF70FFA04B010BD000020000010FFFF00000600024018
S12343E010B584B001ACA11C6846FFF76FF96846008802285EDDE0780002217908435A49CD
S1234400401A15D0401E26D0083837D0401E42D0A149401A4CD16846008806284AD101234A
S12344200322611D1807FEF74DFB7B4A012143E06846008804283DD101230122611D97485B
S1234440FEF740FB6079A749FF2800D164208877454A012130E06846008804282AD10123A2
S12344600122611DA048FEF72DFB61799D48FF2900D16421C1779D4A01211DE068460088E1
S1234480052817D101230222611D9948FEF71AFB704A012110E06846008805280AD1012324
S12344A00222611D9348FEF70DFB7A4A012103E0312200E0132200212E20FFF797F904B0A4
S12344C010BD0000FCEBAD7FF8B584B007246D46A91C03A8FFF7FAF8E978081D01E0641EF8
S12344E0401E42B2914231DA63B2EB5CFF2BF6D0042AF4DD1022002123E0C0252540600835
S12345006040A608464020097040860140200640A00127014740E0007840A7004740802007
S1234520B8433043854201D0FF2001E0A006800E8E4C4DB26055491C521C5B1E0AD1002266
S12345400121B720FFF752F905B0F0BD491C6846021D04231478200002D0FF2CEBD0CCE74B
S1234560FF20E5E74405002001130000FFDD000010B584B001ACA11C6846FFF7A7F8E078F5
S1234580002802D10022012101E012220021B220FFF72CF904B010BD8A48C1680288D200DD
S12345A08918CA78002A00D0704780B50A798B7953404A79134201D1C9790175002201212E
S12345C0B320FFF713F901BD0AF1000087F1000080B500F08BF901BD10B5654C2068010665
S12345E0C90F10D020682068802141402160606802F016FE0022744B02F022FE02F0F4FEA7
S1234600606000F0E9F810BD88F1000091F100008AF100008BF100008CF1000093F1000045
S123462095F1000010B467490A7C4B7C54001C431A43920022438B7CDB001343CA7C920117
S12346401A4300021043614A0240CA8410BC704780F100000A1300005D49420010188000C8
S1234660085C012808D05B484178F7220A405549497CC90011434170704710B50400002140
S1234680FEF706FF00212000FEF784FC8149487410BD00000B13000081DE00001000001076
S12346A040217D4802680A4302607C480268072313430360C2681143C160C16810220A435F
S12346C0C2604E210161016808220A4302608020C0027C490A6802430A607B490A681043D0
S12346E008607047B40400201200001002130000180000101C00001030B432487349C163F6
S123470065490A6880235B0313430B60704900220A7041234B708A702C23CB704B7986244D
S12347201C434C7102238C791C438C710C78802525430D704C79EF2525404D712024045D24
S1234740FB25254020240555624C8486C277487903434B7130BC70471A49CA6B10700020A3
S12347605E4B58718A630620C87770474C0200200C90034070B45A4843781248C16B0A005C
S12347803C2B01D07D2B00D10023147825000AD080256D00521C16789B199EB2AE4200DBD9
S12347A0FF3B641EF6D1DA434B1C0C781A5501224A4B5A7149784B4A11700721C17770BC15
S12347C070470000C4010020008853404FFF0000907600002C02002010B53F4CE17DA08DA1
S12347E0022909D1401E82B2002A11D1032161760521A176E17609E0012909D1401E82B204
S1234800002A05D1032161760421217700212276A085E175E07F002808D0801E02281AD98E
S1234820001F1ED0401E012815D910BDA08E00280ED10120A074FF20FFF7F4FE0A20E07733
S12348402448A08628480178FD220A40027010BD401EA08610BD208E002814D0401E208622
S123486010BD608E002811D11C48407900280AD02020205C0221014320202154184801789F
S12348800720FEF759FD00F00BF810BD401E608610BD0000040200200C8004400090034008
S12348A000BF0D482021415CFB220A4020214254084981860021C1770B48017802220A43D6
S12348C00270704780E200E000E100E01402002000A0064010270000C40100200000002050
S12348E00403002007A0064005A00640F8B5AA4C267960790090A94DC0210140402915D1A3
S12349006079014361712078BF2101402170E87F0A2803D1FFF7C4FF0020A87420788021BF
S1234920014321706079EF210140617102273E4218D02079022101432171E0792020285C62
S12349400A21014320202954E87F062803D0072801D0082804D1924801780420FEF7ECFC66
S1234960FFF79EFF8020009901421ED06179084360714020217840220A432270217849061E
S1234980490E2170E97F0A2900D1E3E004212022A954102129862178084320700320E877C2
S12349A06079FD2101406171F1BD2079E679810600D4E1E0E97F03290AD0042914D0062979
S12349C041D0072900D198E00A2900D1C5E0F1BD552E00D099E00420E87701F06DFE002027
S12349E0B14A9070A884F1BD01213000FEF7D2FA6B4908704E703C2801D03D280BD100214A
S1234A00E9850122A84B1A71B34A91775178F8230B401F435770FF280AD0FEF7F5FBAF4849
S1234A20E96B097849004018801E00886886F1BD2020285C4021014320202954FF210320D1
S1234A40FEF77AFC86E0A86B401CA8630670E86B954F7979027891424BD1514909786A4634
S1234A6011704F494978FEF7BCFAB04234D101262020285C0121014320202954E078DB2154
S1234A800140E1700920E87768460078FEF701FCFEF7D0FAE07824210143E170E87F0A2856
S1234AA001D0FFF7FDFE3E4800783C2821D1E86B417800291DD18178FF291AD1C178FF294C
S1234AC017D10179FF2914D14179FF2911D1C079FF280ED1BE750CE02020285C1221014306
S1234AE020202954684601780520FEF725FCFFF7D7FE7879401C7871F1BD400605D56A4911
S1234B004A79E86B835C9E4205D0254801780620FEF712FC1EE00378934205D3521C4A7189
S1234B20D2B2805CE071F1BD002088722020285C0121014320202954E078DB210140E1702B
S1234B400920E87716480078FEF7C9FBE07824210143E170FFF7A4FEF1BDF02E07D0E02EBF
S1234B6005D0C02E03D0802E01D0002E04D1FFF797FE607907436771F1BD5948594908603A
S1234B805948A4210170012141700F210171A021417101207047000000A00640C4010020AF
S1234BA004030020F8B5FDF7B3FDFEF79BF8FDF781FDFEF71BF94D48FDF7C4FE00F076F8CD
S1234BC001F00EFFFDF7D8FDFEF723FA00F0D4F801F0BFFE464C404F0025334E01E001F0F5
S1234BE06DFB02F093FAB17DB078012808D0012908D0F17D012909D0317E012918D109E055
S1234C00012900D1B575F17D012900D1F575317E012900D13576012802D1B570BC48858415
S1234C20BC480078C00703D401F0E6FD01F062FE01F052FD78784007400F022802DB3879B3
S1234C40C009B875B07B0028C9D0012829D12079012802D12571FFF730FA607901280FD11E
S1234C606571182000F046FE00F0CCFE00F01EFF00F07CFFFEF73DFA01F06CFD01F0F8FC51
S1234C80A079012806D1A57101F0C9FC00F0AAFA00F0B2FBE0790128A3D1E57100F06EFB55
S1234CA09FE70120B0739CE7000000209A4800210170017801220A4302700178F7220A40D8
S1234CC002700178EF220A4002700178DF220A400270007870470000DC03002080760000BE
S1234CE00026000008ED00E000200540002D31013205002070B55C080D68A84201D2106867
S1234D0070BDA5004E59B04201D1505970BD86420DD2641CE4B25B1EA3422CDBA6008D59CE
S1234D209C420ED085420CD2641CE4B2F4E7631EDBB29C000D59002B0FD0A8420DD25B1EC1
S1234D40F6E7631E1B069C0D0B5914599159091BC01A41430800E91A0AE05B1C1B061459F0
S1234D609B0DD258121B401B42431000C958491B02F0FFF9001970BD70B502F0C7F901248F
S1234D80BB4DE868800B2040FBD06603686830436860F02001F00EFE002001F00BFE2868D6
S1234DA03043286002F0B2F9E868800B2040FBD00220FDF7CDFC02F0A9F9E868800B2040A3
S1234DC0FBD0686830436860872001F0F3FDFF2001F0F0FDD42001F0EDFD286806432E603E
S1234DE00520FDF7B5FC0B21092001F033FF0221012001F02FFF0221142001F02BFF002177
S1234E00052001F027FF0021062001F023FF0321072001F01FFF974CE17A0B2001F01AFF2B
S1234E200021032001F016FF0321082001F012FF217B0C2001F00EFF0021042001F00AFFD1
S1234E4004210A2001F006FF03210F2001F002FF0521102001F0FEFE0421112001F0FAFE42
S1234E600221122001F0F6FE0121132001F0F2FE01210E2001F0EEFEFA25AD002A00032177
S1234E80102000F04BF820852A000321082000F045F8A0862A000321102000F03FF86085B3
S1234EA02A000321082000F039F8E0862A000321102000F033F8A0852A000321082000F0CD
S1234EC02DF820872A000321102000F027F8E0852A000321082000F021F860872A0003215C
S1234EE0102000F01BF820862A000321082000F015F8A0872A000321102000F00FF86086E0
S1234F002A000321082000F009F8E08770BD0000C401002005A0064000D00740F1B584B0D1
S1234F200020002501900027A94C6E46317069464A800390029016E06B461E745B8892B228
S1234F409A4200D38AE0A288A24EB24200DA85E0039B1818039002984018029001988018D1
S1234F6001906D1C7F1C69460978F8B28842684676D2067C02F0CAF8300002F0A5F8608801
S1234F80E188814201D2421A00E00A1A2286394B9B7B012BD0D0002BECD16A461674D2E7C5
S1234FA09626760069464E80097C102969462CD10978039102F0DDF80700AF850298039987
S1234FC002F0D7F8A886218DBBB2994201D3C91B00E0791A2184618D83B2994201D3091A23
S1234FE000E0411A61842785608568464088218C884233D3608C864230D301986946097889
S123500002F0B7F880B205B0F0BD097C0829F4D169460978039102F0ACF80700EF8502986D
S1235020039902F0A6F8E886A18DBBB2994201D3C91B00E0791AA184E18D83B2994201D3BA
S1235040091A00E0411AE184A785E08568464088A18C884202D3E08C8642CED20020D2E709
S1235060057003985C4D297F012999D1FA2698E704F00F4000000020F0B45748018F002939
S123508001D1022208E0292901DA0A2204E0512901DA092200E0072250490A72504AD5796B
S12350A0062D02DAC823852403E00B2D03DAD8238D24640002E0E923FF242C34AE4A16883A
S12350C001220F78BF0817421CD1B34204D30B2D02DA0023837319E0B44201D2102D03DA40
S12350E0FF22F632964209DB00210173827B372A01D341771FE0521C82731CE000218173B5
S1235100017318E00025B34209D38573037B097A8B4201D342770EE05B1C03730BE0B4421A
S1235120057307D2817B372901D3457703E0491C817300E08573F0BC704728482649CA8C82
S1235140002A08D14279322A03DB02780823134306E0521C00E0002242710278F723134068
S123516003700A8DA04B9A4208D1C278322A03DB02780223134306E0521C00E00022C27090
S12351800278FD2313400370498D00290DD10179322903DB017804220A4304E0491C017174
S12351A00178FB220A40027005E00178FB220A4002700021017101788A08D20703D4802272
S12351C00A43027070474906490E01707047000020040020D1840000DC03002024050020A6
S12351E000000020F8B584B0002202207F4D804C019200920392029001277E4801F038FC6F
S123520001F084FF0320FDF7A3FA0020E08001F07DFFE868800B3840FBD0686879030143C7
S12352206960C32001F0C6FB0600002001F0C2FB31020143080A20706170002001F0BAFB88
S12352400600002001F0B6FB310201436180002001F0B0FB0600002001F0ACFB3102014339
S1235260A180002001F0A6FB0600002001F0A2FB31020143E180002001F09CFBA07528687E
S123528079030143296003986188401803900198A188401801900098E18840180090029824
S12352A0401E0290A9D10199009A039840084908019151080091B14DE88401992985009951
S12352C06985AF4C1023C2214900621840396118FFF710FD802801D2002619E0A9498842BD
S12352E004D20A2101F045FF012611E0A649884204D2642101F03DFF022609E00326A349F5
S1235300884204D2FA21890001F033FF00E07F2066722072102322008432210044310198FF
S1235320FFF7E8FC80B2BE49884200D3481E4021605210238220400022182100C431009843
S1235340FFF7D8FCC0B2FE2800D3FD20E071FFF7F4FEFFF791FE687F012806D1A07F01280A
S123536001D1032003E0022001E00020002720216854E77705B0F0BD4000002070B4804AFC
S1235380D6794020135AA7480382067145890581417801708489448184784470C4898481B0
S12353A0C4788470C381C670547F701D814205DB18006430854201DB012404E0972D02DB43
S12353C0022900DB00245477507F012807D1032B01DA862E04DB032D03DB862901DB0020AF
S12353E0907770BC70470000FFFF000004F00F402004002040D00000F0B585B0002002909E
S123540001900490039003210920FDF764F98649888403210820FDF75EF98349C884022086
S12354200090824E8027002403250920306001E001F06CFE30683840FAD0306980B224183F
S12354406D1EF2D12000029C032101F092FE80B220180290002403250820306001E001F0C5
S123546055FE30683840FAD0306980B224186D1EF2D12000019C032101F07BFE80B22018F1
S123548001900098401E0090CDD1674B029840085882019840085884D8889880D88A988234
S12354A01889D880188BD88258891881588B188398895881988B5883D8899881D88B98830A
S12354C0188AD881188CD883588A1882588C188400240498039D61001A1D525A80181A007C
S12354E01432515A6A18641C61001D1D6D5A40191D001435695A5518641C082CEBDB1C4688
S123550010232200683221002831C008FFF7F2FB060010232200683221002831E808FFF71E
S1235520E9FBFA2E00D3FA262670FA2800D3FA20607005B0F0BD3E48022102690A430261CD
S12355400268114301608021090402690A430261026811430160704736480221C2680A4371
S1235560C26002681143016080210904C2680A43C26002681143016070470000DC030020CA
S123558000000020F70400009D31000019F0010029492A4A927B012A31D110280FD128486C
S12355A0408F002808D14878401C4870C0B264281ADB6420487010E00020487014E0082828
S12355C012D11F48408F00280CD18878401C8870C0B2642808DB6420887008780122024310
S12355E00A7001E000208870487864280EDA887864280BDA0878FE2202400A7006E00878CD
S1235600FE2202400A700020487088700878C20702D44022024301E0BF2202400A707047DF
S1235620FE030000100500205402002000B0034004F00F4008F00F402405002000000020D4
S1235640DC030020F8B50400FA2292000821FFF765FCA14948872000FFF79AFF102C00D0F4
S123566092E09D48418F002900D132E10186828D9A49CA844B880B8002248B1ECA8465004B
S12356804E5B5E53641CCA8465004E5B5E53641CCA8465004E5B5E53641C142CEEDBCA84BB
S12356A08F4C6179002900D013E1418F21828D4B5986598D19859D8D5D85DD8D9D851D8E53
S12356C0DD855D8E1D86884B9A4201D2282310E0C8339A4201D250230BE0844B9A4201D293
S12356E0782306E0C8339A4201D2DC2301E096235B007F4A557C467EC77D374307D1042D62
S12357000FD0032D0DD0022D0BD03C330AE0042D08D0032D01D1143304E0022D01D11E33AE
S123572000E02833857F012D00D18C230126C57CEF08374200D12181A182A578278A8F426B
S123574001D300201AE0C91B9184918CAC4FB94201DB002012E0C07D00280BD19BB29942F4
S123576006D3022D02DD0025267008E06D1C05E0002503E00846D17D01F0F8FC2070A570FF
S12357802089A0812078F2BD082C00D0A1E05248418F002900D19CE04186C28D4F494E2370
S12357A0CA524B8D0B8502234E240A535C000D0028352D5B0E00263635535B1C4E240A53E7
S12357C05C000D0028352D5B0E00263635535B1C4E240A535C000D0028352D5B0E00263687
S12357E035535B1C142BDFDB4E23CA523C4C617900296ED1418F61823A4BD987D98E998638
S12358001D8FDD865D8F1D879D8F5D87DD8F9D87354B9A4201D2282310E0C8339A4201D231
S123582050230BE0314B9A4201D2782306E0C8339A4201D2DC2301E096235B002C4A557C75
S1235840467EC77D374307D1042D0FD0032D0DD0022D0BD03C330AE0042D08D0032D01D15F
S1235860143304E0022D01D11E3300E02833857F012D00D18C230126C57CEF08374200D111
S12358806181E182E578678A8F4201D300201AE0C91BD184D18C5A4FB94201DB002012E08A
S12358A0C07D00280BD19BB2994206D3022D02DD0025667008E06D1C05E0002503E00846ED
S12358C0D17D01F053FC6070E5706089E0816078F2BD0020F2BD0000DC0300208C030020C3
S12358E0DC04002000000020D0200000C4220000B404002070B50400964D082634423DD019
S12359000820FFF79FFE002834D0032801DA012030E0C11E032901D202202BE0811F02298F
S123592001D2032026E001000839022901D2042020E001000A3901D105201BE001000B3988
S1235940032901D8062015E001000F39032901D207200FE00100123901D16E730BE00100DA
S1235960133901D1092005E01438102801D20A2000E00B206873687B77494870E0063DD53D
S12359801020FFF75FFE002834D0032801DA012030E0C11E032901D202202BE0811F022947
S12359A001D2032026E001000839022901D2042020E001000A3901D105201BE001000B3908
S12359C0032901D8062015E001000F39032901D207200FE00100123901D12E730BE001009A
S12359E0133901D1092005E01438102801D20A2000E00B202873287B5749087070BD000068
S1235A0011270000F0B4554C207F012805D1FA2149000B00C820800003E0962040000300B4
S1235A200100A58DA68E4E4AAE4201D2AD1B00E0751B9583E58DE48EAC4201D22C1B00E084
S1235A40641BD483158CAB420BD3558CA94208D3948CA34205D3D38C9942AD41ED43ED0F28
S1235A6000E000253F4B142114243E4E36881F88B74201D2F61B00E0BE1BB04200DA0025AE
S1235A809B1C641EF1D1374B1C0028341E8D2788B74201D2F61B00E0BE1BB04200DA00252C
S1235AA0A41C491EF2D19576F0BC7047F0B42C49487E284A294C8B7E012B23D1237ACB76BD
S1235AC0657A2572A57A6572557B167BAE4201D2A57200E0A672244CA57A002D08D11D0071
S1235AE0052D00DB062595750B760122A2722DE00C7E9C422AD21C00052C00DB06249475DC
S1235B000B7623E0184D6B8E2B85EE8FAE866B85EE86AB852E87EB856E872B86AE87002387
S1235B20AB720B76083403252370967D002808D00020012E01DDB61E04E0370002D0761E37
S1235B4000E001209675641C6D1EEDD14876F0BC70470000B40400201E040020DC03002032
S1235B60200400208C03002000000020F0B584B09B49C88A6A46D0809A4A108F00239A4C73
S1235B80D57D052D00D95CE301A66D00765BB7440A0078020A03B0065C05580648798D79B8
S1235BA0167E002E01D0012001E001281DD1B94E178E3785578EB786178E7785578EF786A8
S1235BC0178EB785578E3787178EF785578E7787178E3786578EB78713819372A375322DA4
S1235BE002DB0025002000E06D1C8D714871487A642804DB4B736D46EB70937602E0401C1F
S1235C006D46E870107D557D012D08D10A2804DB002053750226D67502E0401C00E0002560
S1235C201075D576CB728B732375107FD58F6E46B580958F3580A57D002D33D0F37005004E
S1235C4002D10125D57503E06D46AB8001255575667C042E03D109256E46B5700AE0032E42
S1235C6003D10A256E46B57004E00B25022E6E46B57001D1012500E00225267B6F46BF789B
S1235C80BE420FD3667B6F46BF78BE420AD3967EB54207D20420D07501206D46AB802B807D
S1235CA05376CB736D46ED784D72158F6D1EAD41ED43ED0FA574E57CA67CB54204D2012827
S1235CC002D1D075937653766D46AD8896263601B54206DB6846838000206D462B8053762B
S1235CE004E06D46AD886D1C6E46B580557E2E0006436E4602D13380B38003E03688664F55
S1235D00BE4209DA012D07DD684603805376838001200225D5750CE06D462D886D1C6E466A
S1235D2035806D462D885C4EB54202DB6D462B8053760D788E8A177E022F01D1012501E061
S1235D40012D03D1642E0CDB022504E0022D09D1642E06DB0025002693760127D7755376AC
S1235D6000E0761C8E820D70FA25AD00A68CAE4202DAE68CAE4203DB0125CD710B720FE046
S1235D800D7A642D07DBCB710B72424D6E8D0E82ED8E4D822EE06D1C0D72CD79012D29D164
S1235DA00D8A168EAE4224D2568E4F8ABE4220D2B74E178EED1BB5421BDB4D8A578EED1BAC
S1235DC0B54216DB4D7B142D10DBCB710B724B7301206D46AB802B8053760525D57509E09C
S1235DE0F8040020DC030020B40400206D1C4D7300E04B736D462D8895876D46AD88D587FD
S1235E0010771376A07CE0741CE28B82CB73CB720B738B720125267D761C26758B73907EFB
S1235E20F6B20A2E06DB00259582D375401C567E761C5676D576174D6D7B667C042E04D00C
S1235E40667C032E01D0022E0DD1A47D052C06DB6D1CECB2332C02D300250424D475C4B2B2
S1235E60022C11D90CE0A47D052C06DB6D1CECB2332C02D300250424D475C4B2032C03DD71
S1235E80002048730223D375024B5D7390760120D5E100BF00000020B10400000B708B82A0
S1235EA0012515777B4E73730B739376CD7A6D1CCD728B72CB739382D3635376657C042D86
S1235EC00FD10A283FDB062550284D7003DB2825CD7014253CE0322801DA3C2536E0302574
S1235EE00CE0032D13D10A2803DA04254D7050254CE0052550284D7003DB3C25CD701925EF
S1235F0026E0322821DA5025CD70232520E0022D0FD10A2805DA03254D706425CD702D250B
S1235F2016E004254D70322833DB50280DDA64250CE00A2805DA03254D708C25CD7032250A
S1235F4006E050281DDB04254D705025CD701E25CE7A0F79BE4200D3CB728E78002E2DD0FB
S1235F60CE7A6F467E700E793E706E46367803966E4676780296039F0A3FBE420BDAD376AF
S1235F8011E003254D70322803DA7825CD702825DEE76425B8E76E4636786F467F78BE42CE
S1235FA001D30126D676029E039F7F1EBE42CE780E710BDA052818DCC8261FE04E788E703B
S1235FC0CE780E716E463678002EF3D08E78761E8E70360605D14B73D3760B71CB704B7082
S1235FE0D375052819DA642620E0282801DABE2604E0462801DAB42600E0AA266F463E7082
S1236000A68C3F78BE4204D2E68C6F463F78BE42E7D30528E5DB4E788E70322801DC78269F
S123602004E0502801DC8C2600E0A026887BA77D022F0ED9401C6E46F380C6B2AE4214D3BA
S1236040002088700871C8704870C8720425D5750BE06D46ED886D1C6F46FD806D46ED8818
S1236060B54202D36846C38000208873CD79087AFA26B600A78CB74202DAE48CB4420BDB52
S123608001250020034C668D0E82E48E4C820BE0B90B000000000020642802DB0025002027
S12360A021E0401C012D1ED1148E0E8AB44219D24C8A568EA64215D20E8A178EF61B7C4FA5
S12360C0BE420FDB568EA41BBC420BDB4C7B142C05DB002500204B730523D37503E0641C8E
S12360E04C7300E04B730872CD710220A7E0012515774B73A382CB7293760225D576D3635B
S1236100002801D01E2801DA782508E03C2801DA8C2504E0502801DAA02500E0C825CE7BDA
S1236120AE4202D300250B7300E0751CCD73657C042D0FD1052802DA3C20202506E0502848
S123614002DA8C201C2501E0C8201825A67D032E33DD3FE0032D0FD1052802DA3C20262529
S123616006E0502802DA8C20222501E0C8201E25A67D032E21DD2DE0022D0FD1052802DA6B
S12361803C202D2506E0502802DA8C20282501E0C8202625A67D032E0FDD1BE0052802DAC2
S12361A03C20322506E0502802DA8C202D2501E0C8202825A67D032E0CDC8D7A854206D3F7
S12361C08B720220D075012E38DD8B7236E06D1C8D72F8E7087B401CC4B2AC4201D2087308
S12361E0F3E70520D0750B73EFE7012515770325D576CB73667C042E01D0032E05D1052887
S123620001DA50200BE0022504E0052802DA5020042504E0502801DA642000E078208B7267
S12362200B73667D761C6675F6B2864202D30420D07502E0A07DA84200D36375D07D107677
S123624000E0D3756846C088C88204B0F0BDF0B41848C17C0123184ACC081C4220D01579FA
S12362606D1C148B641CC67D052E02D1EEB2152E03E0042E05D1EEB21F2E9B41DB43DB0F8A
S123628003E0EEB2152E00DA0023A6B2C8277F00BE4208DB00240023F7250D40C57401E0C4
S12362A0002400230025537114831571F0BC7047B90B0000DC030020DC040020F8B58F4FDC
S12362C00020F876AD480078FC210140AB480170AB4E012020217054142400F017FFFA2284
S12362E0920001211020FEF719FE7887002801D1641EF2D1A34988421FDAFE24FA25AD00CF
S123630000F004FFF17A491CF172C9B20B2000F0A1FC0520FCF71CFA2A0003211020FEF77F
S1236320FDFD7887F17A984A80186A1C90424ED3F0294CDA641E52D0E2E79449884252DB82
S1236340FE24FA25AD0000F0E1FEF07A411EF172C9B20B2000F07EFC0520FCF7F9F92A000C
S123636003211020FEF7DAFD7887F17A864A80186A1C90422FD311292DDB641E2FD0E2E741
S1236380F0296DDA641E73D051E08049884273DBFE2400F0BBFE307B411E3173C9B20C20A2
S12363A000F058FC0520FCF7D3F9FA22920003210820FEF7B3FD7887317B734A8018AA4A1E
S12363C0904251D311294FDB641E51D0E1E7F02905DBF02002E0112901DA1020F072F17AF7
S12363E00B2000F037FC788F64490D00A88330857085B085F08530867086F07A69460870CE
S1236400012301229948FCF75DFB142400F07EFEFA22920001210820FEF780FD78870028D0
S123642001D1641EF2D157498842AEDAFE2400F06DFE317B491C3173C9B20C2000F00AFC80
S12364400520FCF785F9FA22920003210820FEF765FD7887317B4C4A8018834A90428FD278
S1236460F02905DBF02002E0112901DA10203073317B0C2000F0EEFB788FE883B086F08676
S123648030877087B087F087307B6946087001230122AE48FCF716FB00203881B872012164
S12364A0B173B8767073F1BD30B41448827C8949A74B0724224202D10025C57607E01D7EAF
S12364C0002D04D107251540012D00D10D7014401C764A780B78012B0DD1C376002484762D
S12364E0521CD5B20A2D02DD00220C70C476048184720376C4754A7030BC7047DC0300202C
S123650030B49348037FB9498A7C5409457F0022A54202D20125C57601E0AC4201D3012B00
S12365200DD10023CD7D052D04D10D760425CD75427504E0042D02D10D760225CD75037712
S12365404477C37E012B15D1CB7D002B01D0012B10D1012301248A76857E6D1C8576EDB269
S12365600A2D01DDC2760024CC760A818A720B76CA7500E0827630BC704700002C02002054
S123658000000020D4AD00002C52FFFFBDB1000070B49648817CC9086D4A032303240C404C
S12365A0557EAC420AD003240C40012C1BD1047E8F4DAC710024447684760477147CD57B02
S12365C0012D17D1002505818572C5760576C5753C2C0EDBD5730024854EB679C67545765A
S12365E08576057706E01942E8D10124D473147CE8E7641C14740B40537670BC704780B527
S123660003210B20FCF767F87A49414308000D2100F0AFFD000B0830B349888101BD10B5F1
S1236620FFF7EDFFB048C27A817A83891C004C2C06DA0022491CCBB21E2B11DB01230EE07A
S1236640503B652B03D200220021427208E0BA2C06DB0021521CD3B21E2B01DB022343728D
S12366608172C27210BD0000E90300001400001030B49E4801885E4A527D012A19D15B4A8E
S1236680D37F012B15D193759625ED00A94208DB00219175D177547CFC2525402B4353741A
S12366A000E0491C537C9B079B0F012B01D100239375018030BC70474D480121417500219B
S12366C04A4A91770170417001774023D1520174417670475204002038B5454C207C01285E
S12366E032D11820FFF706F9FFF78CF9FFF7DEF9FFF73CFAA748C07E00280BD001206074CD
S1236700002060702070A4490A6840239A430A60207431BD6078012816D100206070207002
S1236720324940228A5A521C93B2BC4DAB4204DB012222774022885231BD40200A52207FCB
S1236740002801D10120E07531BD000016000010B404002030B42648417C012902D0017F4E
S1236760012940D10021417001709C4A91848170C27E837E1E2B12DB817601234376282A0E
S12367800ADB417401770376184A547CFC2525402B435374C17607E0521CC27604E05B1C5E
S12367A08376427E012A17D1C27C022A12DDC1749B4A137801241C4314701378FE241C40FA
S12367C01470027D012A02DD0175417604E0521C027501E0521CC274427D012A03D1034B21
S12367E0DA774174017730BC70470000DC03002000000020910E0000F8B5FEF7ADFE72B641
S123680000F084FC0124994DE868800B2040FBD06603686830436860E12000F0CBF80020AB
S123682000F0C8F828683043286000F06FFCE868800B2040FBD0686830436860A32000F0FA
S1236840B9F8002000F0B6F8286806432E60A6480178BF220A400270254800210174A34A6A
S1236860537C9B0709D153785B0706D14A4B1E68402737431F60947707E0D1761176D17544
S1236880454B1C684026B4431C60994B40245E79402737435F711E7834431C706B68802427
S12368A024021C436C604174D17741752023D1549173117351619183D176D1635176FCF7E5
S12368C018FC8C480178E3220A4002708A48016804220A43026062B630BF2F480168402239
S12368E091430160F1BD000024050020F60400200000002038B55D4C206880210902014320
S12369002160FEF718FEFDF7CBFE0020FDF7F4FE7548017840220A430270FCF7E3F90020DE
S12369202E4A9084C149887000F0F0FB0120E168890B0140FBD04503606828436060E420A1
S123694000F038F8002000F035F820680543256031BDB848016801220A4302600E48016899
S12369608022D2010A4302600168C022D2000A4302608C21416080214903AF4A13680B4326
S12369801360AE4A136819431160016840229143016070472004002000D00340A4480168DD
S12369A080220A430260A14801210174002101704170704770B52021A14C22780A42FCD003
S12369C0A070332680252078284204D10520FBF7CBFE761EF7D1A07870BD0000C401002068
S12369E010B5944801688022D2020A4302603E4C20781021014321702078082101432170A6
S1236A0020780421014321708E498F4800F00AF8207840210143217010BD0000741400001D
S1236A2003A0064030B500F0A4FB010000220020551C0C00EC40C5B26D1CA54206D2401CEE
S1236A40C5B2082DF7DB521C082AF0DDC1B2082900DB0720082A00DD082200017021014095
S1236A601007000F08437949087030BD04F00F40F8B50400F02109020140D0200002814274
S1236A8017D12006400E2106890E41402006C00E48402106090F41402006400F48402106F7
